:02000002D0002C
:1040000000400D00A0D60D00000006000D000501C7
:084010000401FD08000000009E
:0440180034C80D009B
:1040200009480A49884208B505D0094A824202D0A7
:10403000121A08F015F90748074A0021121A08F069
:1040400037F9014808BD00BFF8DC032054D50D0046
:104050001CDE032020DE0320F4E7032070B5074EAA
:10406000074C07F0FBFBA41BA4080025A54200D1C8
:1040700070BD56F8043B98470135F7E71CD50D0095
:104080004CD50D0000F0C4BA08B500F0D7FBBDE870
:10409000084007F09BBB05F08BB805F089B805F028
:1040A0008FB8000008B5034A00210C2004F062FF1D
:1040B000FEE700BFC58B0D000078B0FA80F0400924
:1040C00070470123037070477047006A0368DB681C
:1040D00018470000014B01221A70704728E00320A6
:1040E00003681847012A03D0022A03D00020704732
:1040F0000160FBE70B680360F8E7436913B183696C
:104100000C301847704713B500210446084604F0E8
:10411000D9FC0023204601A9019304F0EBFC019C8B
:104120000CB1012323710021012004F0CBFC2CB140
:10413000236820469B6898470023237102B010BD76
:1041400008B5002004F0BCFF28B104F0A1FF80F006
:104150000100C0B208BD0120FCE700000A4B10B509
:104160000446036005F0FCFF214606F0BEF907F0A7
:10417000E5FA07F0D7FA2046044B40F8043B06F076
:10418000A1F8204610BD00BF48CA0D0030CA0D007E
:1041900010B50446FFF7E2FF2046242107F036FC65
:1041A000204610BD10B58368044613B103220146B2
:1041B0009847204610BD000037B5134B03600446F6
:1041C0008068C8B100256FF00043CDE900350221B9
:1041D0002B462A4604F096FCA068294604F0DAFC37
:1041E000237903F0FF0513B104F054FCF8E7A0684D
:1041F000294604F077FCA56004F10C00FFF7D2FF1C
:10420000204603B030BD00BF1CCA0D0010B50446E7
:10421000FFF7D2FF20461C2107F0F8FB204610BD17
:104220000EB410B58DB00FAA016852F8044B03927A
:1042300000232020CDE90403CDE900421E2004AA7A
:1042400004F0A0FE0DB0BDE8104003B070470000C0
:10425000F0B5254D254C264B2A7821788FB003EBFD
:104260000212009203EB0113224A282104A804F051
:10427000C7FF2B78237004F00BFF00282ED01E4CB4
:1042800004F0A8FCD4E90032C61A62EB42074FF4EE
:104290007A720023B242BB4120DA04F09BFC002377
:1042A0006360164B20601B788DF8003014493C2366
:1042B00004AA02A805F09EF9039C7CB16368013B47
:1042C00063605BB9236820469B689847A368013BFD
:1042D000A3601BB923682046DB689847094804A9F6
:1042E000FFF79EFF0FB0F0BDF8E20320C4E2032009
:1042F00014DD032048C80D0030DE03202CDE03202F
:1043000056C80D00A0E5032070B5D0E9005314266F
:10431000044606FB0356AE4204D0284606F070FF62
:104320001435F8E7206804F04BFF204670BD2DE9F6
:10433000F843B1F10008074635DD4FF0140909FBD9
:1043400008F004F035FF0546A8B3D7E900468442DB
:1043500009FB064615D2864214D9143EA4F114096D
:10436000341B0444B1451FD02CB13146204606F021
:10437000C3FF337C2374304606F042FF143E143CE6
:10438000F0E711D0A946A6420ED02146484606F0D5
:10439000B3FF237C89F81030204606F031FF143437
:1043A00009F11409EFE70025386804F009FF3D60C2
:1043B000C7F808800120BDE8F8832DE9F04100230B
:1043C000C0E9003383600D4649689942044617DD11
:1043D000FFF7ADFFA0B1D5E900634FF014082768DF
:1043E00008FB0368B04509D02FB13146384606F0C6
:1043F0009DFF337C3B7414361437F3E76B686360BE
:104400002046BDE8F0810000604BF0B501261E702B
:104410005F4B08221A705F4B5F4A9A60002499B084
:104420001C609C809C71022004F0D6FD0EAD2146DC
:10443000304604F0E9FD5949284606F02CFF58495A
:104440008DF8486013A806F026FF022102A8CDE9E6
:1044500002448DF85C600494FFF769FF98B1029CF8
:1044600034B12946204606F061FF9DF84830237498
:1044700013A904F1140006F059FF9DF85C3084F88C
:1044800024300223039307F059F902A9074605A82F
:10449000444CFFF792FF05A908A8FFF78EFF0BAE6B
:1044A000414B236008A93046FFF787FF32461E21A3
:1044B000201D06F074F93046FFF726FF08A8FFF725
:1044C00023FF3A4B2360276205A8FFF71DFF384BF7
:1044D000236007F033F94FF4165107F01FF905F088
:1044E0003FFE214606F0EDF802A8FFF70DFF13A8E6
:1044F00006F086FE284606F083FE2E4B0E9395E8C6
:1045000003002D4B2D4A1A6003F10C0286E80300CC
:1045100092E8030085E8030096E8030082E80300C0
:10452000274A5A619A691192264A9A610024012207
:104530001C719C6003F10800234901940092234AF6
:10454000109404F0C7FA2846214DFFF72BFE2149AD
:10455000284606F0A0FE20482C61C5E90844002248
:104560000023AC620624C5E9062340F8044B03F09F
:10457000DBFA1A4B1A482146022201F041FA184987
:104580001848022200F060FD19B0F0BD2CDE0320B7
:104590002DDE032020DE03200000FFFF67C80D0092
:1045A00070C80D0068E1032030CA0D00A8D20D00CC
:1045B00048CA0D00D5400D00FCE203201CCA0D00C6
:1045C000E5400D00E1400D00905F010007410D0046
:1045D000C8E2032070D20D0038DF032024E303205B
:1045E0002CE003208CE1032010B50446243002F0B7
:1045F000BFFF04F11C0002F0BBFF206908B1FFF708
:104600004EFD606808B1FFF74AFD204610BD00006E
:104610002DE9F04301219FB0072007F08FF94FF4F7
:10462000FA6004F035FE72487249FFF7F9FD7248EE
:1046300000F04EFF18B971496D48FFF7F1FD9FED8D
:10464000700A704801F01CFA002217216D4801F031
:1046500091FB02F001F802F00DFA06F052FF044659
:10466000B8BB04F00DFD204604F0C4FADFF8C881A1
:1046700005464FF00009002004F0BCFA461B61EB30
:104680000407B94508BFB04505D304F001FD10B9D2
:1046900004F0EEFCEFE704F0FBFCD0B106F04EFFB7
:1046A000594BC117C3E9000104F0F2FC10B100201E
:1046B00004F0FEFCFFF744FD10B904F0D9FCF9E763
:1046C000FFF73EFD514B5249494801221A70FFF74E
:1046D000A7FD03F097FC4F494F4D044608A803F08F
:1046E000D5FA09A904F1080006F011FE0E9BE3615A
:1046F0000FA904F1200006F00AFE149B6363169BC9
:10470000E363189B63641A9BE3641C9B63659DF8D9
:10471000743084F8583008A802F042FF06F00EFF0B
:10472000C117C5E91801284603F0E4FC00247F23E3
:104730003A498DF820300FA8CDE90944CDE90B4462
:10474000CDE90D4403F0C6F8354911A803F0C2F8CD
:1047500008AA0A21334804F072F908A8FFF744FFB9
:10476000314B29461A6808A803F0A6FB224604A983
:104770000320089D049404F01DFC002834D1049CFF
:104780000CB1236923B9294A00210A2004F0F2FB65
:104790000023ADF816300C23ADF814306B440693AB
:1047A0000423079305AA2369012120469847D8B915
:1047B000BDF80C3007EE903AFBEECC7A17EE900A7B
:1047C00007F098FA2A46CDE9000119490848FFF791
:1047D00027FD08A806F014FD164B1A780AB9022224
:1047E0001A701FB0BDE8F083FFEE007AE6E700BF65
:1047F000A0E503207CC80D008CE103208BC80D00D0
:1048000000C064442CE0032060E1032028E0032082
:1048100097C80D00B9C80D0038DF0320E0C80D00AF
:10482000E9C80D00C8E20320B0DD0320C58B0D00F0
:10483000F2C80D00F8E20320BF2709002DE9F04F70
:10484000914DD1B0F9238DF83E302B78052B00F037
:10485000D880062B00F08A80022B45D18B4B1B7829
:10486000022B01D0FFF7F4FC894E8A480024CDE9E1
:104870000244CDE900440DF13F030DF13E02314603
:1048800000F020FC50B30121072007F068F89DF8E4
:104890003E309DF83F208048F4540C9200F0C1F95E
:1048A000317C0C9A009103467C497D48FFF7B8FCA7
:1048B000337C8DF8403077489DF83F3000940122DA
:1048C00010A900F0CBFB18B176497548FFF7A8FC9A
:1048D0000021072007F043F806232B70724803F0ED
:1048E0008FFF08B105232B70704D01F0B5FE01F06C
:1048F000A6FD2B78002B00F0C4806D496848DFF8D6
:10490000D081FFF78DFC002410A8CDE91044ADF84C
:10491000484004F074FD4FF4FA6004F0B9FCD8F894
:10492000040023462246214604F00AFC204604F0F7
:1049300061F942F20F7681460027002004F05AF90F
:10494000B0EB09030A9361EB04030B93DDE90A233F
:104950009F4208BF9642C0F08F80404606F05EFA44
:10496000002840F0898004F083FBE6E7474B1B7882
:10497000062B01D0FFF76CFC454A4E49B2F80530D2
:10498000D07AD489B2F8076051F82010977A92F85B
:10499000099092F80CA092F80DB092F810800C914A
:1049A0005BBA9BB264BA0D93A4B206F0C7FD76BAA7
:1049B0000C990D9B404AA4F57F44FF3CB6B2CDE96B
:1049C0000780CDE905B4CDE90171CDE9039A4FF433
:1049D0008071009610A804F013FC01F03DFE374BE7
:1049E000374A1B7812780021134302688DF80410AF
:1049F0008DF80030146833493C2310AAA0470223E5
:104A000071E7224B1B78052B01D0FFF721FC04F046
:104A100037FB002004F0EEF8DFF8B88004464FF0D2
:104A2000000A4FF00009002004F0E4F8061B61EBD7
:104A30000A07B94508BFB04505D304F029FB10B9F2
:104A400004F016FBEFE704F023FB00283FF44CAF23
:104A500006F074FD1C4BC117C3E900011B4B98689D
:104A60000028CCD000236FF00042CDE900230121C3
:104A70001A4604F047F8C2E7154806F0CFF90023BC
:104A80002B7051B0BDE8F08FF8E20320C4E20320A0
:104A900038DE03208CE103202CE003201CC90D002C
:104AA000A0E5032047C90D00C8E2032028E0032049
:104AB000ECC90D00F8DC032059C90D002DDE0320E0
:104AC0002CDE0320D7C90D0060E10320FCE20320A7
:104AD0005CE50320BF270900016002717047006890
:104AE0000368DB681847006803681B6A184700689A
:104AF00003689B6A1847006803689B6B184737B5C3
:104B000005460C4619460192FFF7F5FF2868019A01
:104B100003685B69214603B0BDE830401847006870
:104B20000368DB6B184738B50446006803680D4618
:104B30005B6B984729462046FFF7F1FF257138BD8A
:104B400038B50446006803689B689847054618B165
:104B500021792046FFF7E7FF284638BD0068036843
:104B60001B6C1847006803685B6C18470068036893
:104B7000DB6C1847006803681B6D18470068036802
:104B80005B6D1847006803689B6D18472DE9F84373
:104B9000044600680A9F1E4603681B69DDE9089801
:104BA00098470546C8B11EB12046FFF7E3FF3070B5
:104BB000B9F1000F04D02046FFF7D8FF89F80000B4
:104BC000B8F1000F04D02046FFF7D8FF88F80000A6
:104BD0001FB12046FFF7D6FF38702846BDE8F8839E
:104BE000012070470379032BFCD00120704700207F
:104BF00070478171704741717047C172704701738E
:104C0000704741737047837B23EA0202114381732B
:104C10007047C0797047007A7047407A7047807A51
:104C20007047008A00B27047007970470171704781
:104C3000408A80B27047808A80B27047C08A80B252
:104C4000704738B505460C462B682846DB68984700
:104C500028B9002CF8D0204604F01AFBF4E738BD40
:104C6000F8B505460F46144603F0B4FF064603F0B8
:104C7000B1FF801BB8420AD22B682846DB689847F0
:104C800030B9002CF3D0204604F002FBEFE70020FF
:104C9000F8BD70B504460E4603F09CFF054603F0D0
:104CA00099FF401BB04204D22379032BF7D0012097
:104CB00070BD0020FCE770B5C3690446B3B103F0D2
:104CC00089FF64260546236820461B6B984768B118
:104CD00003F080FFE369401B984209D80A210120B4
:104CE00006F0BDF9704304F0D3FAECE7012070BD83
:104CF0000020FCE7064A0260FF2100220271417198
:104D00004282C172828281818273C282C261704793
:104D10009CCA0D00704770477047704770474171DB
:104D200070478171704701717047000030B5034DC5
:104D3000056001714271837130BD00BF1CCB0D0055
:104D4000704710B51021044606F060FE204610BDE5
:104D50000EB403B503AB002153F8042B019306F006
:104D600042F902B05DF804EB03B0704773B5044636
:104D700008462279A36832B1A3B90B4902B0BDE855
:104D8000704006F0FFB8094A267B094D0949647B4B
:104D9000012E18BF2946CDE900140749FFF7D8FFB7
:104DA00002B070BD054AEFE759CB0D0070D20D007F
:104DB00055CB0D0051CB0D006FCB0D0048CB0D0036
:104DC00010B50446FFF7B2FF054B2360054BA36007
:104DD0000123237300232361A382204610BD00BF5B
:104DE000A8CB0D0094CB0D0013B50B4C2178BFF36D
:104DF0005B8F11F001010BD120460191FFF75CF9A7
:104E0000019928B1054806F041F92046FFF759F904
:104E1000024802B010BD00BF18E303201CE30320CA
:104E200007B50191FFF7E0FF019903B05DF804EBCE
:104E300006F0DEB908B5FFF7D7FFBDE8084006F079
:104E4000DDB908B5FFF7D0FFBDE8084006F0D7B9D7
:104E500010B50379042B20D0032B20D0022B20D0B7
:104E6000114A1249012B18BF0A4641798379013949
:104E700018BF012133B1012B04D0022B02D0032B28
:104E800018BF002300240473026101754375FFF706
:104E9000ABFFBDE8104006F003B9054AE5E7054A57
:104EA000E3E7054AE1E700BF80841E0040420F00AF
:104EB0000024F40000127A0000093D0008B5FFF755
:104EC00093FFBDE8084006F0FCB810B50446FFF7B4
:104ED0008BFF04F10801BDE8104006F01BB908B5CE
:104EE000FFF782FFBDE8084006F0FAB808B5FFF703
:104EF0007BFF08BD002302481A461946FFF760BF32
:104F000024E30320012A05D1007A0B781B1A5842AA
:104F100058417047002070472DE9F04F264D01237E
:104F200087B02B706B7000230F46A970009303228B
:104F3000FF232946064600F0B9FB20B10024204695
:104F400007B0BDE8F08FFA238DF8173003F042FE6A
:104F500006F104098046AA4608F57A6403F03AFE91
:104F6000201A0028EADD81B200224846FFF7BFFD83
:104F70000028F3D00023CDE90233CDE900330DF151
:104F800017025146304600F09BFB04460028E3D050
:104F90009DF81730012BDFD995F800B0BBF1020F57
:104FA000DAD14846FFF7E6FD5B4602463946304611
:104FB00000F0F3FAC3E700BF3CE30320012A2DE928
:104FC000F34107460E4614463BD94D79022D30D1A8
:104FD00000F10408C97901914046FFF7CBFD083C78
:104FE0002B4602460199384600F0D7FAE5B206F1A1
:104FF000080300242246954204F10104E4B204D9D6
:1050000013F8012B397A9142F4D104F108010E44CE
:10501000A54216D916F8011B01914046FFF7AAFDDB
:1050200001340246019902233846E4B200F0B5FA91
:10503000EEE7032D05D1897902B0BDE8F04100F01B
:1050400095BA02B0BDE8F08110B5044600F0E6FA6A
:10505000014B2360204610BDDCCB0D002DE9F0474D
:10506000F92A9DF8209006460F4614461D4625D87D
:10507000FF2B14D1DFF848804046002322463946F2
:1050800000F8013B07F0ECF8621CCDF820902B46AD
:1050900041463046D2B2BDE8F04700F007BB1946A2
:1050A00000F020FA0028E5D1336829469B68304695
:1050B00098470028DED10220BDE8F0870120FBE7F9
:1050C0003CE303202DE9F04F89B09846FA238DF890
:1050D0001A300DF11F0303930DF11E03DFF880A1B9
:1050E00002930DF11D03019307AB00938946174608
:1050F0000DF11B030DF11A025146DDF848B00546CB
:1051000000F0DEFA5646044620B90024204609B0D5
:10511000BDE8F08F9DF81A3073B39AF800205ABB9F
:10512000B8F1000F03D09DF81B2088F80020BBF1D8
:10513000000F03D09DF81C208BF80020139A1AB1A1
:1051400013999DF81D200A70149A1AB114999DF8AC
:105150001E200A70159A1AB115999DF81F200A7021
:105160003A783D49013BDBB29A4288BF3B703A78BE
:10517000484607F075F8C9E79DF81C20FF2AC4D1FE
:10518000012BC2D93278012ABFD12A7A9DF81B405F
:10519000A242BAD0DF1E3149FFB200235FFA83F882
:1051A000474506D911F8010B824203F10103F5D1FD
:1051B000ABE705F104094846FFF7DCFC0223024691
:1051C0002146284600F0E9F995F8173193B1244CAF
:1051D000A31BDBB29F420CD9E17805914846FFF74B
:1051E000C9FC059902460223284600F0D6F901348D
:1051F000EEE7B8462B687278DB681A49284698476C
:10520000044660B10223002433709DF81A209DF8F3
:105210001B3013490094284600F048FA76E795F8C9
:10522000163143457FF671AF95F81731002B3FF4E7
:105230006CAF9DF81A202B7A09493E440132F37075
:105240009DF81B300190D2B200932846FF238DF8C1
:105250001A2000F0F5F959E73DE303203FE303206E
:105260003CE303203EE30320F0B585B0054604305F
:105270000E460392FFF77EFC039A07463146284606
:1052800000F047F90228044601D005281BD13178E7
:10529000284600F06BF972782B7A9A4213D00B4CA7
:1052A0000323237033786370717802233A462846CB
:1052B00000F073F9002300932146737802222846F8
:1052C00000F0F4F90446204605B0F0BD3CE30320AD
:1052D00010B50446FFF700FCC8230021E381032337
:1052E000A160217323744FF4807204F1110006F061
:1052F000DFFF204610BD1FB504460192FFF72EFCCC
:10530000204600228021FFF72DFC2122019B8DF8F1
:105310000F200DF10F0101222046FFF7F0FB204680
:10532000FFF7E1FB04B010BD2DE9F04F057B01351F
:10533000EDB287B004468946924698460573002729
:10534000227C3B469A4207F10107FFB26BD3294604
:105350002046FFF703FC012F0DBFC0228022402111
:1053600000212046FFF7FEFB4346524649462046B1
:10537000FFF7C5FB2046FFF7B6FBB8F1FF0F54D08F
:10538000012F82BFA3680133A36003F023FC4FF415
:10539000807183460020E68905F061FE704348BFB6
:1053A000FF3006EB20261BFA86F603F013FC301ABA
:1053B0000028C5DD81B200222046FFF798FB0028B7
:1053C000F3D00DF1170302930DF1160301930022A0
:1053D0000DF115030093114605AB2046FFF7D6FBF0
:1053E0000028E2D09DF814209DF9173042450ED1D7
:1053F00094F804C09DF815108C4508D1002B08DAEC
:105400009DF81630AB42D0D107B0BDE8F08F002B2D
:10541000CBDBA1189DF81630497C9942C5D12046B6
:10542000FFF769FFC1E70020EEE70120ECE72DE977
:10543000F04389B0CDE90421DDE91098129F0446BC
:105440001E46FFF74CFBDDE9042120B90025284664
:1054500009B0BDE8F0830DF11F0302930DF11E03A7
:1054600001930DF11D030093204607ABFFF78EFB60
:1054700005460028EAD09DF91F30002BE6DB227993
:105480009DF81D309A4206D19DF81C209DF81E10F3
:105490002046FFF730FF9DF81C209DF81E30144475
:1054A000617C9942D2D006B13270B9F1000F03D0BD
:1054B0009DF81D2089F80020B8F1000F01D088F870
:1054C000003017B19DF81F203A706374BFE7704732
:1054D00010B504460430FFF733FB10B11E2384F8E7
:1054E000163110BD10B50246002392F818418C42C7
:1054F00008D192F81A412CB103EB430303F58C73E6
:10550000184410BD01330A2B02F10302EDD1002033
:10551000F7E737B50B78FF2B05460C4606D0194642
:105520000192FFF7DFFF58B14378019A2146281D09
:10553000FFF7FAFE002814BF0020052003B030BD9D
:105540000220FBE710B501EB41030446C1F109025B
:1055500003F58C7003F21B1102EB4202214420443C
:1055600006F07EFE002384F8353110BD38B50A46BA
:10557000002300F58C7403EB4305D9B2655D9542B9
:1055800003D1FFF7DFFF012038BD01330A2BF2D131
:105590000020F9E70021FFF7D5BFF8B516461F46F2
:1055A00004460D46002300F58C7203EB4300115CAA
:1055B000A94205D1204480F8196180F81A71F8BD1C
:1055C00001330A2BF1D1002304F58D7203EB430064
:1055D000115C19B9204480F81851ECE701330A2B0B
:1055E000F4D12046FFF7D6FF204604F11E0390F8C1
:1055F0001A212AB980F8185180F8196180F81A71B7
:1056000003309842F3D1DAE700F11E03002280F85C
:105610001A2103309842FAD17047000010B50446B1
:105620000430FFF755FE054B23604FF48F7320467F
:10563000A4F81631FFF7E8FF204610BDF4CB0D00AB
:105640002DE9F3470446406801911F4603689DF821
:1056500028A09B699DF82C901646984706F10508EE
:1056600080451CD8104D019985F801A00023AB702E
:1056700094F81531EB705A1C84F81521681D3246D8
:105680002F7085F8049006F0EBFD23685B685FFAE5
:1056900088F22946204602B0BDE8F04718470120AD
:1056A00002B0BDE8F08700BF36E4032013B59DF8D3
:1056B00010400194047A0094FFF7C2FF02B010BDBD
:1056C0002DE9F04F87B01F46FF238DF813300DF101
:1056D00017030293DFF8D0900DF1160301930DF13B
:1056E0001503009304468846164605AB0DF11302D8
:1056F00049460430DDE910BAFFF799FE054608B9BE
:10570000002538E023689DF813201B684946204691
:10571000984799F80030227A9A4201D0FF2B2ED177
:1057200017B1214B5B783B70BBF1000F03D01E4BD0
:105730001B788BF80030BAF1000F03D01A4BDB78DE
:105740008AF80030129B1BB1174B129A1B79137009
:10575000139B1BB1144B139A9B7813709DF8133055
:1057600032781249053BDBB29A4288BF33703278F7
:10577000404606F075FD284607B0BDE8F08F99F861
:1057800002305A1C89F8022094F816219A42B7D99F
:1057900094F81731002BB3D023689DF813205B6871
:1057A000494620469847ABE736E403203BE4032014
:1057B00010B50446006A0368DB68984794F8240033
:1057C000FF2802D0012106F0B9F823682046DB6FDC
:1057D0009847642003F05CFD012010BD90F8240080
:1057E000002106F0BCB890F82400012106F0B7B8FB
:1057F00070B504460D461646FFF77CFA034B23604E
:10580000266284F82450204670BD00BF04CC0D00F1
:1058100038B50446006A03681B6A0D46984723683A
:1058200020469B6F9847206A036805F07F011B683C
:105830009847206A036800211B689847236805463B
:10584000DB6F20469847206A03685B6A98472846C2
:1058500038BD70B50446006A03681B6A16460D46DB
:105860009847236820469B6F9847206A036845F055
:1058700080011B6898470546206A036831461B680B
:105880009847012003F09EF923682046DB6F984774
:10589000206A03685B6A9847284670BDF8B50446DD
:1058A000006A1E4603681B6A0F4615469847236820
:1058B00020469B6F9847206A036807F07F011B68AA
:1058C00098472E440746B54207D0206A0368002156
:1058D0001B68984705F8010BF5E723682046DB6F46
:1058E0009847206A03685B6A98473846F8BDF8B560
:1058F0000446006A1E4603681B6A0F461546984711
:10590000236820469B6F9847206A036847F0800110
:105910001B6898472E440746B54206D0206A15F802
:10592000011B03681B689847F6E723682046DB6F76
:105930009847206A03685B6A98473846F8BD006A52
:1059400003689B6A184701207047FB207047704727
:1059500010B50379052B044610D003680521D3F850
:1059600080309847072201212046FFF772FF8022EE
:1059700040212046FFF76DFF052323712379052B76
:10598000FCD0207E10BD10B54FF49871044606F08F
:105990003DF8204610BD10B50379012B04460BD00D
:1059A00003680121D3F88030984700220121204666
:1059B000FFF74FFF01232371012010BDF8B50368E5
:1059C000DB6804460F46154698470646B0B187B1D6
:1059D0007DB194F828302A78033B9342DEBF94F8D7
:1059E0002830043B2B702A7804F12D01384606F04C
:1059F00037FC002384F8283184F828303046F8BD7D
:105A000038B5044615461A46FFF7F2FE094B2360E7
:105A1000FF22002384F82720012284F8283184F80B
:105A20002C3184F8265084F82B2184F82530204628
:105A300038BD00BF9CCC0D0090F82830032B1BD93B
:105A400090F82930C37190F82A30037290F82B3007
:105A5000437290F82C308372837933B9C3794279D9
:105A60009A4202D0C379FF2B06D1838A01339BB2BD
:105A70008382012380F82831704700000000000075
:105A800038B504462DED028B10EE100AB0EE408AB8
:105A900006F030F917A3D3E9002306F083F917A322
:105AA000D3E9002306F0A8FA06F08EFB062105468E
:105AB000C0F307422046FFF7CCFEC5F307220721BB
:105AC0002046FFF7C6FEEAB208212046FFF7C1FED6
:105AD000DFED077AB4EEE78ABDEC028BF1EE10FA47
:105AE000ACBF01230023012084F8293138BD00BF59
:105AF00000C042440000000080842E4100000000ED
:105B000080844E4010B50379022B04460BD0036805
:105B10000221D3F880309847012211462046FFF732
:105B200098FE0223237110BD70B512210446FFF7C1
:105B30006FFE1C2105462046FFF76AFEFF2206463F
:105B400012212046FFF785FE2379042B07D115F09B
:105B5000A00F17D194F82B310BB1700612D5237911
:105B6000042B01D1690622D42379032B01D12A0702
:105B700069D42379052B0ED16B070CD505F00105EF
:105B8000257659E0638A01339BB26382002384F84F
:105B9000283184F82830FF2212212046FFF759FED1
:105BA0002046FF22BDE870401221FFF752BE1321AC
:105BB0002046FFF72DFE102105462046FFF728FE60
:105BC0000D2102462046FFF744FE04F129022B4630
:105BD00000212046FFF762FE192184F82850204654
:105BE000FFF716FE40B20028B8BF0330801084F8DB
:105BF0002A011A212046FFF70BFE94F92A3100B240
:105C0000002B2082A9BF238A228A1BB21B01B2BFAC
:105C10009B180F2293FBF2F31BB2238294F82931D5
:105C200073B1238A9D3B1BB223822046FFF704FFFA
:105C300094F82831002BAED02046FFF763FFAAE787
:105C4000238AA43BEFE7E38A01339BB2E382F3E7C5
:105C5000024B186808B1FFF767BF704738E50320AB
:105C6000024B586808B1FFF75FBF704738E5032063
:105C7000024B986808B1FFF757BF704738E503201B
:105C800010B50379042B044610D003680421D3F81F
:105C900080309847052201212046FFF7DAFD0022D7
:105CA00040212046FFF7D5FD0423237110BD10B518
:105CB0000379032B044605D0FFF7E2FF94F828018F
:105CC000C0B210BD0020FCE710B50379032B0446D9
:105CD00010D003680321D3F88030984703220121B4
:105CE0002046FFF7B6FD402211462046FFF7B1FDE2
:105CF0000323237110BDFB2AF8B504460F46154651
:105D000002D900263046F8BD03681B6A9847204632
:105D1000FFF7F8FE23682046DB6A9847064600280E
:105D2000EFD000220D212046FFF793FDE27A0021FB
:105D30002046FFF78EFD227B00212046FFF789FDDC
:105D4000627B00212046FFF784FDA27B00212046D4
:105D5000FFF77FFD2B463A4600212046FFF7C7FD9F
:105D60002A1DD2B222212046FFF773FD2046FFF7FD
:105D7000ABFFC7E738B505460C4680F8252072B161
:105D800081F3040242F07002D2B20921FFF761FDF3
:105D900004224D212846BDE83840FFF75ABD14299A
:105DA00010DC012910DD11290FDD07224D212846C5
:105DB000FFF74FFD033C64B2A21E62F07F02D2B235
:105DC0000921E7E71424F0E7022404224D212846A4
:105DD000FFF73FFDF0E738B50C4605460A781D2170
:105DE000FFF737FD62781E212846FFF732FDA278C3
:105DF00028462621BDE83840FFF72BBD052913B5FD
:105E00000FD8094B01EB41015C185A5AA378ADF841
:105E1000042001A98DF80630FFF7DDFF012002B054
:105E200010BD0020FBE700BF84CC0D0038B50A0A86
:105E300005460C462021FFF70CFDE2B22846212141
:105E4000BDE83840FFF705BD73B50446FFF7B0FC69
:105E5000064618B90026304602B070BD94F82650A8
:105E6000FF2D52D029462046FFF769FD80220121EF
:105E70002046FFF7EEFC0A2003F00AFA0121204633
:105E8000FFF7C6FC8028E5D194F82600FF281CD037
:105E9000002105F053FD94F82730FF2B07D1254A48
:105EA0001378032BD6D8591C117084F8273094F836
:105EB0002720214B43F8224052BB204900924FF04B
:105EC000FF330122A8B203F089FD00220E212046F3
:105ED000FFF7BFFC00220F212046FFF7BAFC204647
:105EE000FFF710FE00212046FFF788FF082120461B
:105EF000FFF79CFF9FED120A2046FFF7C1FD00222D
:105F00000D212046FFF736FFA5E74FF0FF35ADE73F
:105F1000012A4FF0000304D100930A494FF0FF33E8
:105F2000D0E7022A96D1009307494FF0FF330122B0
:105F3000C8E700BF35E5032038E50320515C0D00BC
:105F40000000D943615C0D00715C0D00022A06D08F
:105F5000032A02D0012A00D10160002070470B689B
:105F60000360FAE710B5012303748368044643B164
:105F7000C0689847012363740020BDE8104002F018
:105F800001BE00680028F5D083680BB905F04AFD12
:105F9000C368EEE738B50568044635B12846FEF714
:105FA00001F91021284605F031FD20461421BDE8F5
:105FB000384005F02BBD10B503680446ABB15868F6
:105FC00002F060FD88B923685A7C12B9586802F063
:105FD00069FD2368586802F06DFD20680023236086
:105FE00018B1BDE81040FFF7D5BF10BD054A0260EB
:105FF00000224260027380F8BD22C0F8C822C0F8B7
:10600000D02270473CCD0D0010B5074C236843B932
:106010004FF43570FEF73FF8034608B1FFF7E6FF8F
:106020002360206810BD00BF44E5032038B5044656
:10603000406890B102232373FFF7BDFF656855B137
:106040002846FFF7B8FF286808B1FFF7A3FF04212F
:10605000284605F0DBFC0023636038BD10B5054B16
:1060600003600446FFF7E2FF04F53070FEF79AF88C
:10607000204610BD3CCD0D0010B50446FFF7EEFFE5
:1060800020464FF4357105F0C1FC204610BD38B5EF
:10609000046805467CB16368013B63605BB92368B3
:1060A00020469B689847A368013BA3601BB92368FF
:1060B0002046DB689847284638BDF0B5044689B0CD
:1060C00000F10D0600F14E07237B1BB9012003F000
:1060D000DFF8F9E7237B022B62D0A06802F022FDF3
:1060E000A06802F027FD94F8BD328DF800303A46E2
:1060F0003C23314606A803F07DFA069D6B7833B940
:10610000237B022B03D0012003F0C2F8F5E7D4F87B
:10611000C8321BB3002002F07FFF20B16B7813B9A7
:1061200002F0A6FFFAE72B78D4F8D0220592591E88
:106130004B424B418DF80B30D4F8C832CDE90367A0
:106140000BB905F06FFC05AB0093D4F8CC5204AB4F
:1061500003AA0DF10B0104F53070A847A06802F006
:10616000E1FC237B022B15D0D4F8C8320025C4F8FB
:10617000D05233B104F53071032208469847C4E980
:10618000B2550023A068237302F0D4FC07A8FFF7E0
:106190007EFF99E7A06802F0CDFC07A8FFF777FF24
:1061A00009B0F0BD0068FFF788BF13B50B46024683
:1061B000D0E900016C4684E8030093E8030082E81C
:1061C000030094E8030083E8030002B010BD000060
:1061D0002DE9F74306468846142026491746994676
:1061E00005F016FC044630B10022C0E90022C0E9E7
:1061F0000222027442743460002C31D01D491020F8
:1062000005F006FC054668B1002383600146384668
:10621000FFF7CBFFBB68AA68BA60AB60EA68FB68AF
:10622000EB60FA602768256037B13846FDF7BAFFA2
:106230001021384605F0EAFB3068036883B10A9BF9
:106240004A46CDE9000341460B4B043002F012FCF4
:1062500030B933681B7C4BB9012002F0ABFCF8E786
:1062600030680023336008B1FFF794FE304603B076
:10627000BDE8F083C0D30D00655F0D0030B5436805
:1062800087B00446C3B9083002F044FC0B4B0593B9
:1062900004200B4B02940493FDF7FDFE054638B134
:1062A0004FF4406300930749022302AAFFF790FFCF
:1062B000656002A8FDF776FF07B030BDA5610D004F
:1062C0004D5F0D0020CD0D002DE9F043044685B053
:1062D00080680C9F98460D46164602F023FC6368C2
:1062E0001BB1237B03F0FF0933B1A06802F022FC4D
:1062F000002005B0BDE8F083A06802F01BFC002D73
:106300003DD04122294604F10D0006F092F884F8B0
:106310004D908EB340F26F22314604F14E0006F0EC
:1063200088F884F8BC9200230293BB6804F53075AA
:106330003BB10222394668469847FB680393BB6825
:10634000029329466846FFF730FF029BD4F8C82223
:10635000C4F8C832039B02926846D4F8CC22C4F831
:10636000CC320392FDF71EFF0D9BC4F8D032012002
:1063700084F8BD822073BCE784F84E60D3E72846DA
:10638000B7E703680A7883F8B120012183F8B010D9
:106390007047022A06D0032A02D0012A00D10160E8
:1063A000002070470B680360FAE7012A034602D118
:1063B000016000207047022A04BFD1E90001C3E94F
:1063C0000001F6E710B442680346541001EB620086
:1063D000D20748BF0A591B685DF8044B48BFD35821
:1063E00018470EB410B58DB00FAA016852F8044BCF
:1063F000039200232020CDE90403CDE900420120CF
:1064000004AA02F0BFFD0DB0BDE8104003B0704714
:106410000EB410B58DB00FAA016852F8044B039268
:1064200000232020CDE90403CDE90042322004AA54
:1064300002F0A8FD0DB0BDE8104003B07047D0F8E1
:10644000C83001461BB1D0F8CC30C0301847704777
:10645000F8B5124D0846002A18BF15460F461E46CD
:1064600005F0CDFF402817D8284605F0C8FF40F2B8
:106470006E23984210D84330FDF70FFE044648B112
:10648000394600F8016B05F094FF294604F14200FB
:1064900005F08FFF2046F8BD0024FBE770D20D0009
:1064A000F0B59FB00A4600230E46011D08A800F073
:1064B000F9FD0898002106F0ADF8054608A804F09B
:1064C0009FFE002D60D008A9284606F091F80C9B8D
:1064D0002E492F483246FFF784FF002211462846F6
:1064E00006F08EF8082206A9284606F0A7F80C9FA9
:1064F0004A2F39DD274B069A9A4235D1264B079A07
:106500009A4231D1A7F1080210460592FDF7C5FD68
:106510000446C0B127440146059A284606F08EF885
:1065200017F8093CABB9631C1846059305F067FFE3
:106530003F28059B0DD804F14202009217491448E8
:106540003246FFF74EFF284606F04AF820461FB0B5
:10655000F0BD13490E483246FFF743FF4321204662
:1065600005F054FA0024EEE7BDF81E3002939DF8C2
:106570001D3001939DF81C3000930A49069B044886
:106580003246FFF72EFFEDE72C46DFE744CD0D0046
:1065900048E503206376B6310108410058CD0D006F
:1065A0007ACD0D00A8CD0D002DE9F8438046284B8B
:1065B00048F8043B0446404600F08CFC0222642369
:1065C0000025C4E91B230823E367C4E92055C4E977
:1065D0002255C4E92455C4E92655A5672020FDF7B6
:1065E0005AFDE66FA067013E760800EB8609074674
:1065F0004FF40070FDF74FFD00F50073C4E925036B
:10660000C4F888304FF4FA614FF47A73C4E92D135B
:1066100047F2305347F82600C4F88400C4F88000DD
:10662000C4F89000C4E92855C4E92A550949C4F8BA
:106630008C90C4F89C90C4F8B050C4F8BC30C4F836
:10664000C850404600F08CFC2046BDE8F88300BFEF
:10665000B8CF0D00EDCD0D0038B5064C23683BB921
:10666000D020FDF718FD054608B1FFF79DFF256016
:10667000206838BD4CE5032010B5D1E9002386B071
:106680000021044604910AB9D90705D5CDE90223B2
:106690000F4B05930F4B049302AB93E803006A463C
:1066A00082E8030094E8030083E8030092E8030013
:1066B000049A84E80300A168A260059A0491184630
:1066C000E168E2600591FDF76DFD204606B010BD62
:1066D000C5630D00AB630D0010B503680446586F29
:1066E00002F048FA204610BD10B502698368043AEA
:1066F0009342044602D00433A36010BDC068FDF786
:10670000CEFC63691A1D62615B68E36003F5007289
:106710002261F1E72DE9F04F87B004460190406F08
:10672000DFF8A890DFF8A8A002F01CFADFF8A4B008
:10673000D4F88030D4F89020934205D101A8FFF717
:10674000CBFF07B0BDE8F08F04F1780004F1040836
:106750001F68FFF7C9FF404600F098FE002302467D
:106760004146064602A800F09DFC029840F2022134
:1067700005F050FF054602A804F042FDCDB1082205
:106780000DEB02012846CDE9029A05F069FF07F1F9
:10679000420005F034FE394600F14302284605F078
:1067A0005FFF284605F01CFF074832465946FFF7B1
:1067B00018FE3146404600F0A9FE002FB8D0432114
:1067C000384605F023F9B1E748E503206376B63192
:1067D00001084100FBCD0D00002908BFB0F5006F96
:1067E00038B505D0002908BF40280BD1092A09D1A6
:1067F00005490648FFF7F5FDFFF72EFFBDE83840D5
:10680000FFF788BF38BD00BF18CE0D0048E5032054
:1068100070B586B0044602F03BFC48B9434B02A970
:10682000CDE9023004F1C000FFF726FF06B070BDCD
:1068300094F8B2501DB1012384F8B330F6E702F0AA
:10684000C9F9D4F8A830C01AD4F8AC309842EDD3C6
:10685000261D2946304600F025FE0146C4F8A40056
:10686000002852D02046FFF71BFE0546C4F8A000C2
:10687000002835D002F0AEF902AE00252C4BC4F84A
:10688000A800314604F1C00002930395FFF7F4FE1F
:10689000D4E9283003F1420200922649264AA4F89E
:1068A000B050A84208BF0A4601332449244884F85E
:1068B000B350FFF796FDFFF7A7FBD4F8A020214BBC
:1068C0000593CDE9006511461F4B0294049311F81E
:1068D000013B4232FFF7F8FC3046FDF763FCA5E7C9
:1068E000D4F8A42019491648FDF79AFC0121304636
:1068F00000F0D8FDD4F8A4102A46304600F00EFC73
:10690000D4F8A030002BB5D195E7D4F88030D4F876
:1069100090209A4207D01B68C4F8A03004F1780098
:10692000FFF7E2FEECE7C4F8A00084E7B1690D00D0
:10693000096D0D0047CE0D0077C80D0068CE0D0023
:1069400048E5032083630D0093630D004BCE0D00DB
:10695000C368CA689B1A9B105A1ED0E900301B1AE4
:106960009B1003EBC21388680A68801A03EBA0002F
:10697000704737B505460190406F02F0F3F805F116
:10698000800105F19000FFF7E3FF044650B9281D90
:1069900000F0D6FDD5F8A03004461BB1D5F8A430E0
:1069A00003B9013401A8FFF797FE204603B030BDBC
:1069B00013B5044602F06CFB90B102F00BF9D4F869
:1069C000B430C4F8AC300D4BC4F8A800009369464D
:1069D000002304F1C0000193FFF74EFE02B010BD8A
:1069E00094F8B2301BB1012384F8B330F6E72046A7
:1069F000FFF7BFFF0028F6D0F0E700BF11680D00D9
:106A00002DE9F34104460190406F02F0ABF804F128
:106A1000800104F19000FFF79BFFE36E834202D2F6
:106A20002046FFF777FEDFF84880104F261D3046DE
:106A300000F086FD236F984205DC01A8FFF74CFEAD
:106A400002B0BDE8F0810121304600F02BFD054683
:106A50000028ECD001460022304600F05FFB2A46B9
:106A600041463846FDF7DCFBE1E700BF48E503207F
:106A700087CE0D0013B50446002002F0DDFA012890
:106A800005D012491248FFF7C3FC02B010BD04F153
:106A9000740002F057F80F4A002300214FF40460FD
:106AA00002F0AAFAFFF7B0FAFFF7E8FB201D00F0AA
:106AB00075FC2046FFF7A4FF074B009369460023AF
:106AC00004F1C0000193FFF7D7FDDEE79ACE0D0079
:106AD00048E50320D9670D00B1690D0070B5036862
:106AE000044663B1436A45691E1DAE4204D955F898
:106AF000040BFDF7D4FAF8E72068FDF7D0FA20463A
:106B000070BD2DE9F04706468946406A7169736891
:106B1000471A09EBA7050135B3EB450F144627D9F2
:106B20005D1B6D083268AD000CB14FEA89042C443E
:106B30001444031DA142A3EB010213D9994202D0D0
:106B4000204605F09BFB74612368F36003F5007336
:106B50003361E3197362E359F36103F50073336240
:106B6000BDE8F0879942EED0381D801A2044E8E74E
:106B700003F102084B452CBF9844C844B8F1005FAC
:106B800001D304F049FF4FEA8800FDF784FAA8EB2F
:106B900005056D088246AD000CB14FEA8904726AA2
:106BA000716904322C449142544403D0521A204655
:106BB00005F064FB3068FDF772FAC6E900A8C2E789
:106BC0002DE9F04186B004469DF830509DF83430F0
:106BD0002B430F461646FFF73BFC0546002842D0E4
:106BE000434B44494448002E18BF33463A46FFF70A
:106BF000F8FB606F059401F0B5FFD4F89820D4F845
:106C00009030043A934204F1780804F1900604F1BC
:106C100080072BD003B11D60D4F890300433251DBC
:106C2000C4F89030284600F08BFC3946039030467B
:106C3000FFF78EFE029002F02BFADDE9023200909F
:106C40002E492D48FFF7CDFB284600F079FC00289F
:106C50003ED02046FFF75EFD2046FFF7D1FE05A897
:106C6000FFF73AFD012006B0BDE8F0813946304615
:106C7000FFF76EFE6FF06043984202D1204804F0A7
:106C8000CEFED4F89C30A26F9A1AE36FA3EBA20356
:106C9000012B04D8002201214046FFF732FF4FF4B8
:106CA0000070D4F89C80FDF7F6F9C8F80400D4F819
:106CB000903003B11D60D4F89C301A1DC4F89C209C
:106CC0005B68C4F8943003F50072C4F89820A6E716
:106CD00039463046FFF73CFEE36E8342B9D302F0FB
:106CE000D7F90028B5D007490348FFF77AFBB3E787
:106CF00070D20D00BDCE0D0048E5032015CF0D006C
:106D0000E5CE0D0041CF0D0073B590F8B0300446CC
:106D1000002B41D090F8B130D0F8A420002B3DD00A
:106D200052495348FFF75DFBD4F8A430D3B1261D78
:106D30000021304600F0B6FBD4F8A4309842054656
:106D40000DD10121304600F0ADFB0022294630462E
:106D500000F0E4F9474946482A46FFF742FB002382
:106D6000C4F8A430D4F8A00010B1432104F04EFEC2
:106D70000023C4F8A030D4F8B830C4F8AC303E4B8F
:106D800000936946002304F1C0000193FFF774FCEF
:106D900001F020FFC4F8A80002B070BD37493448A4
:106DA000FFF71FFBD4F8BC30C4F8AC30D4F8A430E3
:106DB0004BB1D4F8A00010B1432104F027FE00230A
:106DC000C4F8A030DBE7606F009401F0CBFED4E99B
:106DD0002032934213D0D4F8A02043F8042CD4F8E6
:106DE0008030043BC4F880306846FFF775FC2449C6
:106DF0001F48FFF7F6FA2046FFF78CFCBFE704F1C7
:106E0000800104F19000FFF7A3FD6FF0604398420A
:106E100004F1780502D11B4804F001FED4F88C205F
:106E2000A36F9A4204D1012211462846FFF769FE5A
:106E30004FF40070D4F88C50FDF72DF945F8040C90
:106E4000D4F88C301A1FC4F88C2053F8043CC4F8D2
:106E5000843003F50072C4F8882003F5FE72C4F88C
:106E60008020D4F8A020C3F8FC21BDE754CF0D004A
:106E700048E5032067CF0D0011680D0077CF0D00A6
:106E800089CF0D00E5CE0D00014B024A1A60704714
:106E900048E5032067C80D0010B5074B044640F8CD
:106EA000C03BFDF77FF904F17800FFF717FE201DC6
:106EB00000F0B2F9204610BDB8CF0D0010B5044661
:106EC000FFF7EAFF2046D02104F0A0FD204610BDC8
:106ED00001207047F8B51F4D1F4B0446294640F866
:106EE000043B04F0D8F91D4904F1140004F0D3F96F
:106EF000294604F1240004F0CEF90023C4E90E333E
:106F0000C4E91233C4E91433C4E91633C4E91833AD
:106F100084F834302364082363642020FDF7BBF831
:106F2000656C2064013D6D0800EB850706464FF453
:106F30000070FDF7B0F800F50073C4E9170346F8D8
:106F40002500E064A064A065676523656766204648
:106F5000F8BD00BF70D20D00B8D00D00C4CF0D0039
:106F60007FB5051D0446284604F0F3F90E4968462E
:106F700004F091F96946284604F046FA0646684648
:106F800004F03EF96EB1E3680022013B29466846F1
:106F900004F050FA6946284604F0D3F9684604F034
:106FA0002FF9204604B070BDC9CF0D0010B5C36BDA
:106FB000044613B93C3001F0ADFDE06BBDE8104074
:106FC00001F0B0BDC06B01F0B5BD000010B596B0CA
:106FD0006946044601F00EFFD0B9019B5B042246CE
:106FE00006D515491548FDF71BF9012016B010BD4F
:106FF00012481349FFF70CFA204605F029FB40F22E
:10700000FF11204601F0FEFE80B90E492246E9E755
:1070100002F016F90368022BF1D002F011F90A49C7
:1070200002680648FFF7F4F90020DFE702F008F9EC
:1070300006490268F5E700BFD6CF0D0050E50320F2
:10704000F3CF0D0024D00D0010D00D0033D00D0073
:1070500038B51546044604F01EF94DB12B783BB106
:107060000449204604F09EF92946204604F09AF986
:10707000204638BD49D00D007FB505460E461C465A
:107080004969684604F0F6F9009904B9746A224621
:107090002846FFF7DDFF684604F0B2F8284604B042
:1070A00070BD000070B50C468EB01A49CDE90032B3
:1070B000054604F0F0F8E069E1680144043128462F
:1070C00004F0BCF8211D06A804F030F9124902A80A
:1070D00004F0E1F802A906A804F075F9DDE9003230
:1070E000064621460AA8FFF7C7FF0AA9304604F062
:1070F0006AF90146284604F00AF90AA804F080F863
:1071000002A804F07DF806A804F07AF828460EB02C
:1071100070BD00BF70D20D00C9CF0D002DE9F04742
:1071200013468EB005460F46002A4AD0406801F04B
:1071300079FE0646002841D0DFF8B0A0DFF8A49021
:10714000DFF8A480304601F075FE002833D0827A43
:10715000082AF7D100F10B04696901AA204602F060
:1071600047F80128EED1019B9F42EBD1291D06A8CB
:1071700004F0DCF851460AA804F08DF80AA906A824
:1071800004F021F9214604F02AF9014602A804F08E
:10719000CDF80AA804F034F806A804F031F80298F3
:1071A00005F056FA4046029A4946FFF71AF902A836
:1071B00004F026F8C6E7304601F044FE0EB0BDE804
:1071C000F0870A4601460AA8FFF76CFF0A9805F007
:1071D0003FFA0A9A03490448FFF703F90AA804F0A2
:1071E0000FF8EBE7CBCF0D0050E50320C9CF0D0022
:1071F00070B50368044663B1436A45691E1DAE421B
:1072000004D955F8040BFCF74AFFF8E72068FCF7AF
:1072100046FF204670BD000010B5094B044640F8FB
:10722000403BFFF7E5FF04F1240003F0E9FF04F120
:10723000140003F0E5FF201D03F0E2FF204610BD1F
:10724000B8D00D0010B50446FFF7E6FF20466821D0
:1072500004F0DCFB204610BDC368CA689B1A9B1073
:107260005A1ED0E900301B1A9B1003EBC21388682A
:107270000A68801A03EBA000704700002DE9F04770
:107280000446884600F108011830FFF7E5FF6FF06B
:107290006043984202D1374804F0C1FB626A20681B
:1072A0006368111AA3EBA101012921D86169571A5A
:1072B000BE10B51CB3EB450F36D95D1B6D0800EB56
:1072C0008505131DA942A3EB010227D9994202D0DB
:1072D000284604F0D3FF65612B68E36003F5007373
:1072E0002361EB196362EB59E36103F500732362D9
:1072F0004FF40070656AFCF7CEFE6860A36913B1B5
:10730000D8F800201A60636A1A1D62625B68E36144
:1073100003F500722262A361BDE8F0879942DAD0DA
:10732000381D801A2844D4E703F10209012B2CBF31
:10733000994409F10109B9F1005F01D304F06CFB34
:107340004FEA8900FCF7A7FE626A6169A9EB0505AF
:1073500004326D089142824600EB850503D0521A33
:10736000284604F08BFF2068FCF799FEC4E900A9C9
:10737000B1E700BFE5CE0D0038B5056A8269043D6E
:10738000AA42034606D00AB1096811609A6904321C
:107390009A6138BDFFF772FFFBE700002DE9F04767
:1073A000C368012B86B0044608D834493448FFF737
:1073B0002FF80026304606B0BDE8F0874068FFF79A
:1073C00005FE06460028F4D0636962682D492C4802
:1073D000FFF707F8606801F025FD07460028E8D0B0
:1073E0000023DFF8A490DFF89880A363384601F00B
:1073F00021FD0546002839D0837A082BF6D10B35BC
:10740000616901AA284601F0F3FE0128EED1E36A82
:107410007BB1294602A803F03EFF04F1240102A833
:1074200003F0F2FF824602A803F0EAFEBAF1000F71
:10743000DCD0236829469B68204698470028D5D091
:10744000019AA36B9342B8BFA2632B4649464046BC
:10745000FEF7C7FF2046FFF7A9FD04F1400001A990
:10746000FFF78AFF2046FFF7ADFDBFE7384601F082
:10747000E9FC012384F834309CE700BF4BD00D00B9
:1074800050E5032060D00D007CD00D0010B590F8C1
:10749000343004460BB9FFF781FFA06B0130A063C5
:1074A00010BD000070B590F8343004460E460BB99C
:1074B000FFF774FF2046FFF779FDA36CA26D93429E
:1074C0001ED01D682EB1226D043A93420CD00433B5
:1074D000A3642046FFF776FD25B10A490A482A46EB
:1074E000FEF77FFF284670BDE06CFCF7D8FD636DAA
:1074F0001A1D62655B68E36403F500722265E7E7C5
:107500000025E6E792D00D0050E5032013B590F872
:107510003430019104460BB9FFF740FF019BA26B89
:107520009A42B8BFA3632046FFF740FD01A904F1CA
:107530004000FFF721FF2046FFF744FD02B010BDD9
:1075400038B50446FFF732FD04F1480104F1580054
:10755000FFF782FE05462046FFF734FD284638BD7A
:10756000014B024A1A60704750E5032070C80D00B5
:107570007047704701207047012A08BF0160002052
:10758000704710B50821044604F040FA204610BDAB
:1075900010B51021044604F039FA204610BD000051
:1075A00010B5054B044640F81C3B03F029FE201D96
:1075B00003F026FE204610BD38D10D0010B504465C
:1075C000FFF7EEFF2046582104F020FA204610BDB8
:1075D00010B5044B044640F8043BFFF7E1FF20469A
:1075E00010BD00BF08D10D0010B50446FFF7F0FF35
:1075F0002046602104F00AFA204610BD20F0020364
:10760000012B03D0431F584258417047184670471A
:1076100008B1FCF744BD704708B548B1B0F1005F50
:1076200001D304F0F9F9BDE808408000FCF733BD50
:1076300008BD0B6803604B68436013B15A680132A0
:107640005A60704790F9042091F904309A4213DB94
:1076500010DC90F9052091F905309A420CDB09DC29
:1076600090F9062091F906309A4205DBCCBF012043
:1076700000207047012070474FF0FF307047000036
:10768000024A02604A684260704700BF18D10D008C
:1076900091F90420027191F90520427191F90620B7
:1076A000827191F90720C271704738B50C460546C2
:1076B00000F11C012046FFF7C5FF002809DB05F19A
:1076C00024012046FFF7BEFF0028D4BF0020012080
:1076D00038BD4FF0FF30FBE738B504460D460430A7
:1076E000043103F014FE05F1140104F11400FFF756
:1076F000CFFF05F11C0104F11C0003F008FE05F1A9
:107700002C0104F12C00FFF7C3FF95F9383084F801
:10771000383095F9393084F8393095F93A3084F8B1
:107720003A3095F93B3084F83B3005F13C0104F1E7
:107730003C00FFF7ADFF95F9483084F8483095F9E3
:10774000493084F8493095F94A3084F84A3095F93F
:107750004B3084F84B3005F14C0104F14C00FFF73D
:1077600097FF95F8543084F85430204638BD4A6964
:10777000036862F3160303600B695A1C438862F3C3
:10778000CA134380CA68C3F3072362F3C703C370F5
:10779000704710B504468CB02422002103A804F0E1
:1077A00087FD2368C3F3160308936388C3F3C313E9
:1077B000013B0793E37803A8DB08069301F060FD23
:1077C000CDE9000103A9684601F052FD09980CB00B
:1077D00010BD30B504468DB024220D4603A800210B
:1077E00004F066FD2368E178C3F316030893638809
:1077F000C3F3C313013B05EBD10503A8079306951B
:1078000001F03EFDCDE9000103A9684601F030FD1D
:1078100003A92046FFF7ABFF0DB030BD0368C1F3ED
:107820001602C3F31603934213D310D84288C1F350
:10783000C353C2F3C3129A420BD308D8C378DB08F0
:10784000B3EBD16F05D38CBF01200020704701201E
:1078500070474FF0FF307047024A026000224260DA
:10786000704700BF18D10D0030B5002387B083806A
:1078700083710D4605AB00931349044604AB03AA7C
:10788000284601F0B5FC032807D1039B2371049B14
:107890006371059BA37107B030BD0C4904AB03AA0B
:1078A000284601F0A5FC022804D1039B2371049B08
:1078B0006371F0E7064903AA284601F099FC012804
:1078C00004BF039B2371E6E7C4D00D00C7D00D00B1
:1078D00044C90D0010B5044B036000230446436007
:1078E000FFF7C2FF204610BD18D10D0038B50025A6
:1078F0007F2304460370C0E90155C0E90355C0E980
:1079000005550A491C30FFF7E5FF094904F1240039
:10791000FFF7E0FFC4E90B550649656304F1380041
:1079200003F0B9FCA564204638BD00BFE0C80D00D7
:10793000E9C80D0070D20D0090F9043090F90520CF
:1079400090F90610002BB8BF0848C2EB02124FEAAC
:107950008202BDBF00FB0320401840424FF461602B
:10796000A4BF00FB03235818704700BFF0F1FFFFCE
:1079700090F9073043B990F904308B6090F90530E5
:107980004B6090F906300B60704790F9073030B5C6
:10799000B3B990F904508C682C44D1E900328C6062
:1079A00090F90540002DB5BF121B12194A604A60BC
:1079B000B5BF90F9062090F906209B1A9B180B6022
:1079C00030BD38B544680546AB68A34207D02046B1
:1079D000FFF724FF04340028F6D1012038BD002031
:1079E000FCE738B5046905466B69A34207D0204619
:1079F000FFF714FF04340028F6D1012038BD002021
:107A0000FCE773B505460E46FFF7EBFF90B901A8FA
:107A10000191FFF7BEFE2B78314643FA00F4284669
:107A2000FFF7CFFF04F00104002C08BF04462046F6
:107A300002B070BD0024FAE72DE9F8430024456840
:107A4000804626462746D8F808309D421ED067F368
:107A5000160966F3DA5964F3DF69B9F1000F09D149
:107A60002F686E88EC78C7F31607C6F3C316E408D0
:107A70000435E8E767F3160166F3DA5164F3DF6172
:107A80002846FFF7CBFE0028EADCF1E7002067F389
:107A9000160066F3DA5064F3DF60BDE8F883000097
:107AA000054A08B502600022034642600830FFF72D
:107AB000D3FE184608BD00BF28D10D000023436047
:107AC000838183737047000030B5044687B00D464C
:107AD00011B10B784D2B03D02046FFF7EFFF1BE0D1
:107AE00005AB00930F4904AB03AA284601F080FBC5
:107AF0000328F1D1039B2371049B6371059BA37140
:107B00002F21284604F034FC40B1411C04F1080048
:107B1000FFF7AAFE0123E37107B030BDA081A07377
:107B2000F8E700BFCDD00D00104B114910B5044649
:107B300040F8043B03F0AFFB04F11400FFF78CFEA8
:107B40000B4904F11C0003F0A6FB04F12C00FFF725
:107B500083FE04F13400FFF7A3FF04F14400FFF7B4
:107B60009FFF002384F85430204610BD38D10D000B
:107B700070D20D002DE9F74F0446084604F022FCB0
:107B800000250646019004F134083F49019801AAF6
:107B900004F09EFC0146002862D0012D05F101038E
:107BA00053D0022D56D0002D46D1024692F80090B7
:107BB000B9F1400F1546174602F10102F6D800222E
:107BC0002A7004F11C0003F0C4FB012285F8009028
:107BD00084F854202A786AB397F800A00AF1FF329B
:107BE0003F2AB946BB4607F10107F5D9002304F146
:107BF0002C0789F8003029463846FFF735FE89F80A
:107C000000A0BAF1000F15D05D461BF801ABBAF128
:107C1000400FF9D800222A704946201D03F099FB35
:107C200085F800A004F11400BAF1000F06D029462F
:107C3000FFF71AFE0125A8E71D46A6E73946FFF71C
:107C400027FD237E013B2376F4E74046FFF73CFF08
:107C500002259AE704F14400FFF736FF032594E775
:107C600094F93B3043B194F94B202AB904F1340024
:107C7000FFF724FF84F85420304601F0A1FA94F86D
:107C8000540003B0BDE8F08FD7D00D0038B5134BCA
:107C900004460D4640F8043B114903F0FCFA04F198
:107CA0001400FFF7D9FD0E4904F11C0003F0F3FAAC
:107CB00004F12C00FFF7D0FD04F13400FFF7F0FED3
:107CC00004F14400FFF7ECFE002384F85430294609
:107CD0002046FFF74FFF204638BD00BF38D10D00CA
:107CE00070D20D0008B50346FFF7B6FD8A681A7119
:107CF0004A685A710A689A71184608BD13B5074B4D
:107D000003600023044643606846FFF7EBFF6946C3
:107D10002046FFF7BDFC204602B010BD18D10D0073
:107D200091F9073043B991F90430836091F9053036
:107D3000436091F906300360704707B500230146A0
:107D400001A80193FFF713FD019803B05DF804FB50
:107D5000194B70B504460D4640F8043B043103F05E
:107D6000E5FA05F1140104F11400FFF789FC05F1AF
:107D70001C0104F11C0003F0D9FA05F12C0104F1F7
:107D80002C00FFF77DFC0D4EAB6BA36305F13C01AE
:107D9000666304F13C00FFF773FCAB6CA36466649C
:107DA00005F14C0104F14C00FFF76AFC95F85430E2
:107DB00084F85430204670BD38D10D0028D10D0014
:107DC000F8B50C4651F8043B074640F8043BFFF772
:107DD000BFFFD4E9182304F16806C7E918230FCEC2
:107DE00007F168050FC50FCE0FC533682B60D4E9C6
:107DF000242304F19806C7E924230FCE07F1980540
:107E00000FC50FCE0FC533682B60D4E93023C834BB
:107E1000C7E930230FCC07F1C8050FC50FCC0FC53C
:107E200023682B603846F8BD10B50446383003F09F
:107E3000E7F92069FFF7ECFB6068FFF7E9FB2046F4
:107E400010BD10B5044688B00846683001A904F09A
:107E5000DBF901A804F0D3FA08AB1844002300F8BA
:107E60001D3C01A9204603F016FA204608B010BDBB
:107E700038B591F8583005460C463BB191F93F3082
:107E800053B901F13000FFF757FD28B909492846D9
:107E900003F001FA284638BD2068FFF7AFFB28B190
:107EA00004F10801284603F041FAF3E704F1200148
:107EB000F8E700BFD9D00D002DE9F04F8046A9B0FA
:107EC0000C4615462AB14B4B1046196804F067FA68
:107ED00038B921464046FFF7B4FF404629B0BDE817
:107EE000F08F29463F2218A804F0A3FA002318A80F
:107EF0008DF89F3004F083FA2146054603A8FFF76A
:107F0000B7FF94F858303BB194F93F3083BB04F18C
:107F10003000FFF711FD58BB374907A804F049FAB4
:107F200018AF002605F1FF3BB3454ED9BA4606F11E
:107F300001091AF8013B252B17D17B787A2B36D112
:107F400007A804F05CFA18AB05463018ABEB060244
:107F5000B91C184404F084F92A4607A9384604F0ED
:107F60007FF918A804F04BFA054657464E46D9E764
:107F70002068FFF743FBB8B104F11800FFF7DCFC01
:107F80003C2190FBF1F3002BB8BF5B42B3FBF1F255
:107F900001FB12330093194A194B90FBF3F31021A4
:107FA00007A801F02DF9BBE704F13000E6E75A2BF2
:107FB000DBD1059D18AB7019ABEB0602B91C184458
:107FC00004F04EF903992A46C8E700212E220CA896
:107FD0000B9104F06DF904F1680318AA32210BA883
:107FE00001F03EF90BA9404603F055F903A803F050
:107FF00007F972E7ACDD0320D9D00D00DBD00D000E
:10800000F0F1FFFF38B5094D2B6863B96020FCF72C
:1080100042F8044630B1064B40F8043BFFF784FDBC
:108020006423E3652C60286838BD00BF54E5032055
:1080300008D10D0001F024B901390B2915D8DFE86A
:1080400001F01608160616061616061606161E2047
:10805000704783070DD1642290FBF2F302FB1300FB
:1080600000280CBF1C201D207047002070471F20D7
:1080700070471C207047F8B50123CB6090F904309D
:10808000013B0B610023C1E9003306460C4617464D
:108090008B602046FFF7CEFF96F90630A2699A4220
:1080A00003D0E3680133E360F3E796F90550012D4F
:1080B00013D0E3686069013DC5EBC5051D44E5606B
:1080C00096F9041000F26C70FFF7B6FF8542C4BF4A
:1080D000073DE5602046FFF7ADFF214606F10800A9
:1080E000FFF746FC3846FFF750FC2046BDE8F84055
:1080F00001F0C6B8F0B590F8583085B004462BB9F9
:10810000FFF780FF011D201DFFF7E6FA94F93F30CD
:10811000002B69D0D4E9182304F1980739463E466C
:1081200002A8CDE9022301F0A3F80FCE04F1C8059F
:108130000FC50FCE0FC533682B6004F1300102A8C4
:10814000FFF79EFA02AA394604F13800FFF793FFC1
:10815000C4E9240104F1180102A8FFF791FA02AA68
:1081600004F1C80104F14800FFF785FFD4E9246752
:108170000B468642024677EB0301C4E93023D4E97B
:10818000180124DAB04271EB070519DA00232360E5
:108190002068FFF733FA04F16801D4E91867019108
:1081A00020BB04F13000FFF7C7FB361A67EBE0771E
:1081B000019902A8CDE9026701F05AF805B0F0BDB7
:1081C000904271EB0303B4BF01230223DFE7904227
:1081D00071EB030301DA0323D9E7B04271EB070324
:1081E000B4BF04230523D2E70623D0E704F1180027
:1081F000D9E72DE9704304460E460FCCDCB001AD43
:108200000FC50FCC0FC523682B6001A801F038F80B
:10821000044606F12C000D46FFF78EFB96F93B3025
:1082200014EB000845EBE0791BB3062321A820934B
:10823000FFF77AFC31460AA8FFF78AFD0AA921A8B0
:10824000FFF74AFA20A8CDE93889FFF753FF0AA8BB
:10825000FFF7A6F92098FFF7D1F938B106F114001D
:10826000FFF76AFB14EB000845EBE07921A8FFF764
:1082700097F9404649465CB0BDE8708330B591F946
:10828000073097B00446C3B900F168056846FFF7A8
:10829000F7F969462846FFF743FD211D6846FFF7B9
:1082A00057FD69462846FFF7A4FFC4E91801684650
:1082B000FFF776F92046FFF71DFF17B030BD00002D
:1082C00030B5D0E918320B4D5B194FF0000585B081
:1082D00045EB0202C0E9183204460191FFF70AFF9C
:1082E000019902A8FFF7CCF902A92046FFF7C6FFC3
:1082F00005B030BD805101002DE9F0418AB017462C
:1083000006460D462422002101A81C4603F0D0FF9A
:10831000062F29D829463046FFF78EFE002C8046CE
:1083200024DDA6F26C76013D06960595012301A891
:108330000493FFF77FFE079A049BBA4201D00133F2
:10834000F5E700210122944206D101B10493049C77
:1083500020460AB0BDE8F0810733434504DC013212
:10836000062A4FF00101EED10024F1E7F0D0013DE3
:10837000CDE90405A6F26C76069601A8FFF75AFE31
:10838000079B0499BB4202D001390491F5E7002014
:1083900001226442944203DC0028D8D00491D6E73D
:1083A00007390029E0DD0132062A4FF00100F1D142
:1083B000DAE700002DE9F046CDB0044610A80D46DE
:1083C000FFF7FEFC002320460293FFF735FB58BB66
:1083D0002AA8FFF7B2FC0290FFF714FEC16D02A8B5
:1083E000FFF7F7F9DFF80CA22AA8FFF7A6FC02991D
:1083F0000390064603A8FFF711FA002800F3F28065
:1084000031462046FFF7FDFA0746002800F0948029
:10841000A36C013B042B00F28F80DFE813F0070010
:1084200007009600B800D5000290DBE72AA907A84C
:10843000FFF758FC07A92046FFF737F900280DDAA7
:1084400004F11C0107A8FFF71BF907A910A8FFF703
:1084500015FFDDE92823C5E9182394E06CD1A36C4E
:10846000012B25D0022B67D104F11C0104A8FFF7D2
:1084700007F904F12409494604A8FFF7E3F80028A6
:108480005ADC04A907A8FFF7FBF807A910A8FFF713
:10849000F5FED5E91801DDE92823904271EB0303CD
:1084A00041DB9DF81430E26A13448DF81430E2E7A2
:1084B000E26A94F9213093FBF2F63C21514302FB2E
:1084C0001636DDE92823521843EBE17310A8CDE9F5
:1084D0002823FFF70FFEDDE9282307A904A8CDE92B
:1084E000042300F0C5FE2B9BE16A9B1B93FBF1F27A
:1084F00001FB1233089A07A8D21A94F92230089285
:10850000079300F0BDFECDE9280110A8FFF7F2FDAA
:108510002AA904A8FFF7F2FB04F1240104A8FFF73D
:1085200091F8002808DA2AA8FFF707FC0146204640
:10853000FFF767FA00288CD1514607A8FFF7CAF960
:1085400007A910A8FFF7BCFE4EE72E992F98D4E993
:108550000B32013100F26C70FFF7CEFE2D9B98427A
:10856000EAD104F11C0107A8FFF78AF807A910A8AF
:10857000FFF784FEDDE92801D5E9182382428B410B
:10858000DADAC5E918012846FFF7B4FD2BE0E66A00
:10859000002E08DA2E992F98013100F26C70FFF747
:1085A0004BFD3044461C2AA8FFF7C7FBB6EBD06F43
:1085B000C2D12AA907A8FFF795FB07A92046FFF714
:1085C00074F80028B8DCCCE72AA907A8FFF78AFBD3
:1085D00004F11C0107A80191FFF734F80028019964
:1085E000AADCC0E7002711A8FEF7DAFF38464DB035
:1085F000BDE8F086E0C80D0037B58D6804466846D2
:10860000FFF717F86A462946204601F07FFB01A8CC
:10861000FDF73DFD204603B030BD37B5CD680446BB
:108620006846FFF706F86A462946204601F04AFBED
:1086300001A8FDF72CFD204603B030BD37B50D690C
:1086400004466846FEF7F5FF6A462946204601F0D3
:10865000E2FA01A8FDF71BFD204603B030BD70B55E
:10866000D1E90036F61A0023C0E9003304468360DE
:10867000B0100D46FEF7D0FFD5E90053C4E9000065
:108680000644A6602A460146934205D009B1166801
:108690000E6004310432F7E75B1B1844606020462B
:1086A00070BD38B50D4611F8043B044600F8043B94
:1086B000FFF7D5FF05F1100104F11000FFF7CFFF20
:1086C000204638BD38B504460D46FFF7EAFF05F1F0
:1086D0001C0104F11C00FEF7D3FF05F1240104F195
:1086E0002400FEF7CDFFEB6AE3622B6B23636B6B19
:1086F000636305F1380104F1380002F017FEAB6C3A
:10870000A364204638BD2DE9F043D0F82080D1B0D5
:1087100081460C46154600260027D9F824304345EB
:1087200029D0414601A8FFF7CDFFAB680BB903F094
:1087300079F9EB6801A928469847B0B1214614A8F9
:10874000FFF73EFB14A901A8FFF734FEDDE92C2357
:1087500010B156EA070103D0B24273EB070101DA08
:1087600016461F4615A8FEF71BFF01A8FFF75CFB86
:1087700008F14C08D1E756EA070308D02046C4E9BF
:108780001867FFF7B7FC012051B0BDE8F083002067
:10879000FAE700001FB5084B03936A46074B0293A4
:1087A000FFF7B1FF029B04461BB16946032208464E
:1087B0009847204604B010BD75750D0079750D0001
:1087C00070B504460D4610461946D4E9062352EA10
:1087D000030613D0904271EB03030FDB002200234A
:1087E000C4E90623012629462046FFF7D3FF18B126
:1087F000D5E91823C4E90623304670BD0026F2E708
:1088000030B5BDB0054602F07CFE0446C0B106237B
:1088100001A80093FFF788F902F090FEC117CDE997
:1088200018016846FFF766FC02F088FE69460246BA
:10883000C3172846FFF7C4FF044601A8FEF7B0FEA1
:1088400020463DB030BD81422DE9F04104460E4640
:1088500022D0D1E900580068A3681B1AA8EB0507CD
:108860009B10B3EBA70F4FEAA70118D20846FEF7FB
:10887000D3FE06460346A84505D00BB12A681A6008
:1088800004330435F7E72068FEF7C2FE26603E4455
:10889000A66023681F4467602046BDE8F0816268D7
:1088A000121AB1EBA20F06D8A845F2D03A462946D3
:1088B00003F0E4FCEDE712B1294603F0DFFCD4E954
:1088C0000032D11A33680B4471689942E1D00AB181
:1088D0001868106004330432F7E738B50D4611F814
:1088E000043B044600F8043BFFF7ADFF05F110011F
:1088F00004F11000FFF7A7FF05F11C0104F11C00B3
:10890000FEF7C6FE05F1240104F12400FEF7C0FEC7
:10891000204638BD2DE9F74FD0E900693B4D3C4B6F
:10892000A9EB0604A4106C439C428A4607461146F4
:10893000A84602D1374803F072F8012C224638BF0E
:108940000122A418AAEB06055DD254B19C4228BFAF
:108950001C464C2060430091FBF79DFB0099834629
:1089600000E0A3461BEB050001D0FFF7ABFE5B4622
:1089700031468A450AD033B1184601910093FFF77A
:10898000A1FEDDE900314C314C33F2E7AD0808FBC4
:1089900005FA2AF040454FF04C0A0AFB05FA06EBAF
:1089A0000A050AF14C0ADA4453462946494513D1CF
:1089B000A9EB0505AD0808FB05F525F040454FF08E
:1089C0004C0808FB05A5B046C8450FD04046FFF748
:1089D0002BFA08F14C08F7E7184601910093FFF7CE
:1089E00071FE0199009B4C314C33DFE716B13046E4
:1089F000FBF755FB4C2000FB04B4C7E900B5BC6095
:108A000003B0BDE8F08F1C46A3E700BF1BCA6B286C
:108A10006B28AF01E6D00D0038B5D0E90135AB4287
:108A200004460A4607D013B11846FFF74BFE6368A9
:108A30004C33636038BD1946FFF76CFFFAE730B579
:108A400097B0044603A801920D46FEF74FFF01239D
:108A50000199159303A80E95FFF73FFF03A904F1B1
:108A60002000FFF7D9FF03A8FFF7DEF9204617B073
:108A700030BD000008B5024B1B685B68019308BD60
:108A80004802030008B5024B1B689B68019308BDB0
:108A90004802030008B5024B1B68DB68019308BD60
:108AA0004802030008B5024B1B681B69019308BD0F
:108AB0004802030008B5024B1B685B69019308BDBF
:108AC0004802030008B5024B1B68DB69019308BD2F
:108AD0004802030008B5024B1B681B6A019308BDDE
:108AE0004802030008B5024B1B685B6A019308BD8E
:108AF0004802030008B5024B1B689B6A019308BD3E
:108B00004802030008B5024B1B68DB6A019308BDED
:108B10004802030008B5024B1B681B6B019308BD9C
:108B20004802030008B5024B1B689B6B019308BD0C
:108B30004802030008B5024B1B681B6C019308BD7B
:108B40004802030008B5024B1B685B6C019308BD2B
:108B50004802030008B5024B1B689B6C019308BDDB
:108B60004802030008B5024B1B68DB6C019308BD8B
:108B70004802030008B5024B1B685B6D019308BDFA
:108B80004802030008B5024B1B68DB6E019308BD69
:108B90004802030008B5024B1B681B6F019308BD18
:108BA0004802030008B5024B1B685B68019308BDCF
:108BB0001802030008B5024B1B689B68019308BDAF
:108BC0001802030008B5024B1B68DB68019308BD5F
:108BD0001802030008B5024B1B685B69019308BDCE
:108BE0001802030008B5024B1B689B6D019308BD7A
:108BF0001802030008B5024B1B68DB6D019308BD2A
:108C00001802030008B5024B1B685B6E019308BD98
:108C10001802030008B5024B1B689B68019308BD4E
:108C20002C02030008B5024B1B68DB68019308BDEA
:108C30002C02030008B5024B1B681B69019308BD99
:108C40002C02030008B5024B1B689B69019308BD09
:108C50002C02030008B5024B1B68DB69019308BDB9
:108C60002C02030008B5024B1B681B6A019308BD68
:108C70002802030008B5024B1B685B6A019308BD1C
:108C80002802030008B5024B1B689B6A019308BDCC
:108C90002802030008B5024B1B68DB6A019308BD7C
:108CA0002802030008B5024B1B681B6B019308BD2B
:108CB0002802030008B5024B1B685B6B019308BDDB
:108CC0002802030008B5024B1B681B6C019308BD0A
:108CD0002802030008B5024B1B685B69019308BDBD
:108CE0006402030008B5024B1B689B68019308BD32
:108CF0006802030008B5024B1B68DB68019308BDDE
:108D00006802030008B5024B1B681B68019308BD8D
:108D10003002030008B5024B1B685B68019308BD75
:108D20003002030008B5024B1B685B69019308BD64
:108D30003002030008B5024B1B68DB69019308BDD4
:108D40003002030008B5024B1B681B6A019308BD83
:108D50003002030008B5024B1B685B6A019308BD33
:108D60003002030008B5024B1B68DB6B019308BDA2
:108D70003002030008B5024B1B681B6C019308BD51
:108D80003002030008B5024B1B685B6C019308BD01
:108D90003002030008B5024B1B681B68019308BD35
:108DA0008402030008B5024B1B685B68019308BD91
:108DB0008402030008B5024B1B689B68019308BD41
:108DC0008402030008B5024B1B68DB68019308BDF1
:108DD0008402030008B5024B1B685B69019308BD60
:108DE0008402030008B5024B1B681B6A019308BD8F
:108DF0008402030008B5024B1B685B6A019308BD3F
:108E00008402030008B5024B1B689B6A019308BDEE
:108E10008402030008B5024B1B681B6B019308BD5D
:108E20008402030008B5024B1B68DB6B019308BD8D
:108E30008402030008B5024B1B681B6C019308BD3C
:108E40008402030008B5024B1B685B6D019308BDEB
:108E50008402030008B5024B1B681B68019308BD20
:108E60003C02030008B5024B1B689B68019308BDD8
:108E70003C02030008B5024B1B68DB68019308BD88
:108E80003C02030008B5024B1B681B69019308BD37
:108E90003C02030008B5024B1B685B69019308BDE7
:108EA0003C02030008B5024B1B689B69019308BD97
:108EB0003C02030008B5024B1B68DB69019308BD47
:108EC0003C02030008B5024B1B681B6A019308BDF6
:108ED0003C02030008B5024B1B689B6A019308BD66
:108EE0003C02030008B5024B1B68DB6A019308BD16
:108EF0003C02030008B5024B1B681B68019308BDC8
:108F00004C02030008B5024B1B685B68019308BD67
:108F10004C02030008B5024B1B689B68019308BD17
:108F20004C02030008B5024B1B681B69019308BD86
:108F30004C02030008B5024B1B685B69019308BD36
:108F40004C02030008B5024B1B689B69019308BDE6
:108F50004C02030008B5024B1B68DB69019308BD96
:108F60004C02030008B5024B1B681B6A019308BD45
:108F70004C02030008B5024B1B685B6B019308BDF4
:108F80006002030008B5024B1B685B6D019308BDCE
:108F90006002030008B5024B1B68DB6E019308BD3D
:108FA0006002030008B5024B1B681B6F019308BDEC
:108FB0006002030008B5034B1B68D3F89830019397
:108FC00008BD00006002030008B5024B1B681B6867
:108FD000019308BD2002030008B5024B1B685B68C3
:108FE000019308BD2002030008B5024B1B685B69B2
:108FF000019308BD2002030008B5024B1B681B6AE1
:10900000019308BD2002030008B5024B1B68DB6A10
:10901000019308BD2002030008B5024B1B68DB6CFE
:10902000019308BD2002030008B5024B1B685B6D6D
:10903000019308BD2002030008B5024B1B689B6D1D
:10904000019308BD2002030008B5034B1B68D3F849
:109050008830019308BD00002002030008B5034BCF
:109060001B68D3F89430019308BD00002002030070
:1090700008B5024B1B689B68019308BD44020300BE
:1090800008B5024B1B68DB68019308BD440203006E
:1090900008B5024B1B685B69019308BD44020300DD
:1090A00008B5024B1B681B6A019308BD440203000C
:1090B00008B5024B1B68DB6A019308BD440203003C
:1090C00008B5024B1B681B6B019308BD44020300EB
:1090D00008B5024B1B68DB6B019308BD440203001B
:1090E00008B5024B1B685B6C019308BD440203008A
:1090F00008B5024B1B685B68019308BD4002030082
:1091000008B5024B1B689B68019308BD4002030031
:1091100008B5024B1B68DB68019308BD40020300E1
:1091200008B5024B1B681B69019308BD4002030090
:1091300008B5024B1B685B69019308BD4002030040
:1091400008B5024B1B689B69019308BD40020300F0
:1091500008B5024B1B68DB69019308BD40020300A0
:1091600008B5024B1B681B6A019308BD400203004F
:1091700008B5024B1B681B6B019308BD400203003E
:1091800008B5024B1B685B6B019308BD40020300EE
:1091900008B5024B1B681B6C019308BD400203001D
:1091A00008B5024B1B685B6C019308BD40020300CD
:1091B00008B5024B1B681B68019308BD1C02030025
:1091C00008B5024B1B685B68019308BD1C020300D5
:1091D00008B5024B1B689B68019308BD1C02030085
:1091E00008B5024B1B681B69019308BD1C020300F4
:1091F00008B5024B1B685B69019308BD1C020300A4
:1092000008B5024B1B68DB69019308BD1C02030013
:1092100008B5024B1B685B6A019308BD1C02030082
:1092200008B5024B1B68DB6A019308BD1C020300F2
:1092300008B5024B1B681B6B019308BD1C020300A1
:1092400008B5024B1B68DB6B019308BD1C020300D1
:1092500008B5024B1B685B6C019308BD1C02030040
:1092600008B5024B1B689B6C019308BD1C020300F0
:1092700008B5024B1B68DB6C019308BD1C020300A0
:1092800008B5024B1B685B6D019308BD1C0203000F
:109290000021FFF7A9BE10B5836804460BB902F0A0
:1092A000C1FBC3689847A3681BB10322214620462F
:1092B000984720461021BDE8104002F0A7BB0B687C
:1092C000036013B15A6801325A60704702480023A4
:1092D0000360FFF737BC00BF58E503200022406859
:1092E0001146FFF71DBF002240681146FFF738BF47
:1092F000002240681146FFF743BF40680022FFF795
:1093000037BF4068002281F00101FFF721BF002331
:1093100040681A461946FFF713BF002340681A46F3
:109320001946FFF705BF002240681146FFF7E8BE67
:10933000406800220221FFF7EBBE002340681A4676
:10934000FFF7D6BE084B10B5282422461846002148
:1093500002F0AEFF054B04804FF0FF324260042262
:109360005A60034A1A6010BD64E503205CE50320DF
:1093700048D10D0070470020704710B510210446F9
:1093800002F044FB204610BD08B5FFF7F6FF08BD0C
:1093900030B500224FF69C74026084808D888C80EA
:1093A0000C68858004600A6030BD10B50446006812
:1093B000FFF706FF204610BD38B5C468F4B1237826
:1093C000022B03D104F10C00FFF7EFFF656835B104
:1093D0002846FAF7E7FE1021284602F017FBA56899
:1093E00035B12846FAF7DEFE1021284602F00EFBC2
:1093F00020461421BDE8384002F008BB38BD1FB537
:109400000C23ADF8043003688DF80630037A8DF82C
:109410000730436802930021437AADF80D1001A88C
:109420008DF80F108DF80C30FFF75AFE05B05DF87F
:1094300004FB73B50E46044656F8043B00930D46F4
:1094400001A83146FFF73BFF019A009B6260236051
:1094500001A8002301930093FCF719FE3046FCF7A6
:1094600016FE2846082102F0D1FA204602B070BD4F
:10947000826810B50AB902F0D5FABDE81040C36899
:10948000184708B5006800F11001FFF7F1FF08BDAB
:10949000826810B50AB902F0C5FABDE81040C36889
:1094A000184708B5006800F11001FFF7F1FF08BD8B
:1094B00038B500230446036010200D46FAF7EBFD93
:1094C00028B10123C0E90133024B0360C56020606D
:1094D000204638BD84D10D0038B5002383608B68E9
:1094E00004460D462BB102229847EB68E360AB6857
:1094F000A360204638BD0000F0B589B00468684616
:10950000FFF746FF4FF00203D4E84F2F002A03D1A4
:10951000C4E8413F0029F7D125D104F10C05694683
:109520002846FFF735FFBFF35B8F012363700020F0
:1095300004F10803BFF35B8F53E8006F43E80002B8
:10954000002AF9D1BFF35B8F6EB1FFF765FD78B1EB
:1095500029463046FFF78CFF3046FAF723FE1021EC
:10956000304602F053FA6846FFF71FFF09B0F0BD1E
:10957000314602A8FFF7B0FFE068B4F9105008B117
:1095800002F020FF06901020ADF81C50FAF783FD82
:109590000546E8B1002787601820FAF77CFD0446ED
:1095A00088B10146876002A8FCF7FFFD049BA26812
:1095B000A360059B049206A9E268E36004F1100031
:1095C0000592FFF7E5FE084BEB60084B2C60AB60A3
:1095D00006A8FFF7EAFE02A8FAF7E4FD00222946F2
:1095E0000348FFF721FDB7E783940D0019970D009D
:1095F00097920D002DE9F0478AB005469DF84890F6
:109600000C4617469846FFF743FD07AE824638BB27
:109610004FF62E73059005A93046ADF81830FFF7C8
:10962000B7FE1420FAF737FD044648B10223037051
:109630000123C0E901AA437031460C30FFF7A8FEB0
:109640002846214640F8044BFFF732FF3046FFF72B
:10965000ACFE05A8FFF7A9FE28460AB0BDE8F087D2
:109660000C234FF0000A1420CDE908AA0793FAF75B
:1096700012FD014628B1C0E901AA80F800A080F8D7
:1096800001A004A80391FFF713FF224B08930820C1
:10969000FAF701FD824628B1039B40F8043B04A978
:1096A000FFF70DFE00965FFA89F3424639462046E1
:1096B000CDF824A0FFF7F4FCB8B9039B5B7803F066
:1096C000FF0293B94FF69C7305A903A80592ADF864
:1096D0001830FFF711FF05A8FFF767FE05A80999E5
:1096E000FFF7A7FE06A8FCF7D2FC039B059304A98D
:1096F00006A8FFF7E4FD059B069A2B606A6000232D
:1097000006A806930593FCF7C2FC04A8FCF7BFFC6F
:10971000A2E700BFDD970D00022AF8B5054607D085
:10972000032A18D0012A01D10B6803600020F8BD7C
:1097300018200E68FAF7AFFC044650B13146FFF727
:10974000CBFE3069B6F9147008B102F03BFE20611F
:10975000A7822C60EAE70468002CE7D004F110002F
:10976000FFF723FE2046FAF71DFD1821204602F0E0
:109770004DF9DBE738B5002383608B6804460D465E
:109780002BB102229847EB68E360AB68A3602046E8
:1097900038BD022A70B5044607D0032A12D0012A28
:1097A00001D10B680360002070BD14200E68FAF729
:1097B00072FC054620B13146FFF7DCFF337C2B7489
:1097C0002560F0E70468002CEDD02046FAF7EAFCAB
:1097D0001421204602F01AF9E5E70000F0B589B03F
:1097E00004460D4601A81146FFF723FEA4B124B29A
:1097F0001DB1284602F0E6FD054601A803A9039520
:10980000ADF81040FFF778FE03A8FFF7CEFD02A8E1
:10981000FCF73DFC09B0F0BD019D0123D5E84F2FB9
:10982000002A03D1C5E8413F0029F7D1EFD12B73BE
:10983000BFF35B8F6B702B1DBFF35B8F53E8006F23
:1098400043E80042002AF9D1BFF35B8F002EDED03F
:109850002046FFF7E1FB074660B105F10C013046F9
:10986000FFF716FE3046FAF79DFC1021304602F055
:10987000CDF8CCE7314603A8FFF77CFF2B7B8DF8B2
:109880001C301020FAF707FC0546D0B18760142081
:10989000FAF701FC044678B18760014603A8FCF79B
:1098A00084FC059BA268A360069B0592E268E360C6
:1098B0009DF81C3006922374064BEB60064B2C601F
:1098C000AB6003A8FAF76EFC002229460348FFF7B5
:1098D000ABFBC7E7A3940D0093970D0097920D0083
:1098E000002240681146FFF73BBC00224068114649
:1098F000FFF746BC40680022FFF73ABC40680022F0
:1099000081F00101FFF724BC002340681A46194684
:10991000FFF716BC002340681A461946FFF708BC3B
:10992000002240681146FFF7FBBB00224068114649
:10993000FFF7E6BB406800220221FFF7E9BB0023E6
:1099400040681A46FFF7D4BB024B03225A60024A12
:109950001A6070478CE50320A0D10D007047F8B560
:10996000064615460C468F18BC4206D0336814F8DC
:10997000011B9B6830469847F6E72846F8BD007CF7
:109980000022FFF76FB9007C0021FFF773B9007C5C
:109990000021FFF777B9007C0021FFF77BB9007C3D
:1099A0000021FFF77FB910B51421044602F02EF80C
:1099B000204610BD10B54FF47A73044608460021C6
:1099C000C4E90113034B236020741146FFF77AF9B1
:1099D000204610BDDCD10D00004700002DE9FF41FD
:1099E00000241D460F4690460646FFF733F9A54270
:1099F0004FF00403ADF80D408DF80C308DF80F409A
:109A0000A2BF9DF828308DF80E3003AC07490094B2
:109A100043463A463046A8BF8DF80D50FFF712F97D
:109A2000B0FA80F0400904B0BDE8F081D9990D008A
:109A3000704710B51821044601F0E8FF204610BD1C
:109A4000F0B5037D062B8DB00E4600F104074FF0F4
:109A5000000412D000F1080515F8011D0A22304655
:109A600001F0A3FAAF42044419D0002CF4D02E2107
:109A7000304601F08BFA0444EEE72F236A4639465C
:109A80000A208DF80040FFF725F9684602F0B7FC80
:109A900033680246DB6869463046984704462046EC
:109AA0000DB0F0BD10B5054B0446112240F8043B43
:109AB000002102F0FDFB204610BD00BF04D20D00C6
:109AC0000346074A10B543F8042B01F1100251F880
:109AD000044B43F8044B9142F9D10A781A7010BD37
